:1000000012C019C018C017C016C015C014C013C044
:1000100012C011C010C00FC00EC00DC00CC00BC06C
:100020000AC009C008C011241FBECFE5D4E0DEBF5E
:10003000CDBFB2D0FDC0E4CF8334A1F1843421F030
:10004000823409F045C017C04130510541F481B3F5
:10005000062E01C0440F0A94EAF7842B0AC021B38C
:1000600081E090E0062E01C0880F0A94EAF780959F
:10007000822381BB08954130510541F487B3062E98
:1000800001C0440F0A94EAF7842B0AC027B381E029
:1000900090E0062E01C0880F0A94EAF7809582232B
:1000A00087BB08954130510541F484B3062E01C049
:1000B000440F0A94EAF7842B0AC024B381E090E04D
:1000C000062E01C0880F0A94EAF78095822384BB2C
:1000D00008958334E1F0843489F1823409F044C016
:1000E0004130510541F488B3062E01C0440F0A94F3
:1000F000EAF7842B0AC028B381E090E0062E01C005
:10010000880F0A94EAF78095822388BB08954130CE
:10011000510541F485B3062E01C0440F0A94EAF755
:10012000842B0AC025B381E090E0062E01C0880F21
:100130000A94EAF78095822385BB089541305105E2
:1001400041F482B3062E01C0440F0A94EAF7842BCF
:100150000AC022B381E090E0062E01C0880F0A9405
:10016000EAF78095822382BB0895833431F084348A
:1001700031F0823471F486B303C083B301C080B31D
:1001800090E002C0959587956A95E2F7817099276E
:10019000089581E090E0089588E18AB986E880BDFD
:1001A00087E689B9A398A498A29AA19AC6E4DFE445
:1001B0005F9BFECF8CB1AA98A9988134B9F42FEF38
:1001C00089E698E1215080409040E1F700C00000AE
:1001D00063E070E083E4C9DF892B21F4AA9A5E9B77
:1001E000FECF17C0A99A5E9BFECF17C0823401F7DD
:1001F0002FEF89E698E1215080409040E1F700C060
:10020000000064E070E083E4B0DF892B21F45E9BA2
:10021000FECFDCB903C05E9BFECFCCB92FEF89E6E1
:1002200098E1215080409040E1F700C00000C0CF2D
:04023000F894FFCF70
:00000001FF
